S01D000055635472616E736D6974746572415474696E7938352E73726563EC
S11300000EC028C027C026C025C024C023C022C0DB
S113001021C020C082C01EC01DC01CC01BC0112432
S11300201FBECFE5D2E0DEBFCDBF10E0A0E6B0E05A
S1130030EAEDF2E002C005900D92A236B107D9F7BD
S113004020E0A2E6B0E001C01D92A039B207E1F7BA
S113005052D041C1D5CF80B7816080BF089580E17F
S113006087BB18BA0895282F22952F70282730E0CF
S1130070F901F595E795F595E795E227F3279F01B3
S113008035952795E227F327E170FF27FE2FEE270A
S113009090E09660E82BF92B2FB581E025C04091C4
S11300A06000509161008FB5821B90E08417950722
S11300B0D4F3240F88B3832B88BB40916000509104
S11300C061008FB5821B90E084179507D4F3240F49
S11300D0C4986150710919F7CF0131E08327817009
S11300E0F595E795309731F0382F3295307F60E100
S11300F070E0D5CF0895AFDFB2DFA4D07894CCD030
S11301008823E9F3B5D0C82FF894ADDF78949AD05A
S11301108C2FCBD083E1C9D0F2CF1F920F920FB6B0
S11301200F9211248F939F93EF93FF9380916B0011
S1130130813029F580916A008150F9F4809167003B
S11301409091680080FF02C0C19A01C0C19880915B
S113015067009091680096958795909368008093C6
S1130160670080916900815080936900811104C007
S113017010926B0083E001C083E080936A00809159
S11301806D00811156C0809166008823E9F080914A
S1130190650081508093650081114BC01092660008
S11301A010926C00E0916F00F0E080916400E059DF
S11301B0FF4F808380916F008F5F80936F00803248
S11301C0C0F110926F0035C080916C00811110C095
S11301D0B0992FC081E080936C001092640094E089
S11301E09093650098E0909363008093620021C02F
S11301F0809165008150D9F4B09B07C09091640050
S113020080916200892B8093640080916200880F42
S11302108093620080916300815080936300811118
S113022005C081E08093660083E001C083E0809391
S11302306500FF91EF919F918F910F900FBE0F90EA
S11302401F90189510926B0010926C0010926D0024
S1130250C19AB99AB8989FB7F89489E889BD82E0A1
S11302608ABD83BF89B7806189BF12BE9FBF0895CD
S113027090916E0080916F009817E1F3E92FF0E000
S1130280E059FF4F80819F5F903218F490936E0085
S1130290089510926E00089590916F0081E020916E
S11302A06E00291301C080E0089590916B00913095
S11302B0E1F393E090936A009AE09093690090E0F0
S11302C0880F991F9260909368008093670081E083
S10D02D080936B000895F894FFCFAB
S10502DA7A00A4
S9030000FC
